{
  "_format": "hh-sol-artifact-1",
  "contractName": "CAMMPair",
  "sourceName": "contracts/CAMMPair.sol",
  "abi": [
    {
      "inputs": [],
      "stateMutability": "nonpayable",
      "type": "constructor"
    },
    {
      "inputs": [
        {
          "internalType": "uint256",
          "name": "requestId",
          "type": "uint256"
        }
      ],
      "name": "ERC7984InvalidGatewayRequest",
      "type": "error"
    },
    {
      "inputs": [
        {
          "internalType": "address",
          "name": "receiver",
          "type": "address"
        }
      ],
      "name": "ERC7984InvalidReceiver",
      "type": "error"
    },
    {
      "inputs": [
        {
          "internalType": "address",
          "name": "sender",
          "type": "address"
        }
      ],
      "name": "ERC7984InvalidSender",
      "type": "error"
    },
    {
      "inputs": [
        {
          "internalType": "address",
          "name": "caller",
          "type": "address"
        }
      ],
      "name": "ERC7984UnauthorizedCaller",
      "type": "error"
    },
    {
      "inputs": [
        {
          "internalType": "address",
          "name": "holder",
          "type": "address"
        },
        {
          "internalType": "address",
          "name": "spender",
          "type": "address"
        }
      ],
      "name": "ERC7984UnauthorizedSpender",
      "type": "error"
    },
    {
      "inputs": [
        {
          "internalType": "euint64",
          "name": "amount",
          "type": "bytes32"
        },
        {
          "internalType": "address",
          "name": "user",
          "type": "address"
        }
      ],
      "name": "ERC7984UnauthorizedUseOfEncryptedAmount",
      "type": "error"
    },
    {
      "inputs": [
        {
          "internalType": "address",
          "name": "holder",
          "type": "address"
        }
      ],
      "name": "ERC7984ZeroBalance",
      "type": "error"
    },
    {
      "inputs": [],
      "name": "Expired",
      "type": "error"
    },
    {
      "inputs": [],
      "name": "Forbidden",
      "type": "error"
    },
    {
      "inputs": [],
      "name": "HandlesAlreadySavedForRequestID",
      "type": "error"
    },
    {
      "inputs": [],
      "name": "InvalidKMSSignatures",
      "type": "error"
    },
    {
      "inputs": [],
      "name": "NoHandleFoundForRequestID",
      "type": "error"
    },
    {
      "inputs": [],
      "name": "NoRefund",
      "type": "error"
    },
    {
      "inputs": [
        {
          "internalType": "uint256",
          "name": "until",
          "type": "uint256"
        }
      ],
      "name": "PendingDecryption",
      "type": "error"
    },
    {
      "inputs": [],
      "name": "WrongRequestID",
      "type": "error"
    },
    {
      "anonymous": false,
      "inputs": [
        {
          "indexed": true,
          "internalType": "euint64",
          "name": "encryptedAmount",
          "type": "bytes32"
        },
        {
          "indexed": false,
          "internalType": "uint64",
          "name": "amount",
          "type": "uint64"
        }
      ],
      "name": "AmountDisclosed",
      "type": "event"
    },
    {
      "anonymous": false,
      "inputs": [
        {
          "indexed": true,
          "internalType": "address",
          "name": "from",
          "type": "address"
        },
        {
          "indexed": true,
          "internalType": "address",
          "name": "to",
          "type": "address"
        },
        {
          "indexed": true,
          "internalType": "euint64",
          "name": "amount",
          "type": "bytes32"
        }
      ],
      "name": "ConfidentialTransfer",
      "type": "event"
    },
    {
      "anonymous": false,
      "inputs": [
        {
          "indexed": true,
          "internalType": "uint256",
          "name": "requestID",
          "type": "uint256"
        }
      ],
      "name": "DecryptionFulfilled",
      "type": "event"
    },
    {
      "anonymous": false,
      "inputs": [
        {
          "indexed": true,
          "internalType": "address",
          "name": "holder",
          "type": "address"
        },
        {
          "indexed": true,
          "internalType": "address",
          "name": "operator",
          "type": "address"
        },
        {
          "indexed": false,
          "internalType": "uint48",
          "name": "until",
          "type": "uint48"
        }
      ],
      "name": "OperatorSet",
      "type": "event"
    },
    {
      "anonymous": false,
      "inputs": [
        {
          "indexed": false,
          "internalType": "address",
          "name": "from",
          "type": "address"
        },
        {
          "indexed": false,
          "internalType": "uint256",
          "name": "blockNumber",
          "type": "uint256"
        },
        {
          "indexed": false,
          "internalType": "uint256",
          "name": "requestID",
          "type": "uint256"
        }
      ],
      "name": "Refund",
      "type": "event"
    },
    {
      "anonymous": false,
      "inputs": [
        {
          "indexed": false,
          "internalType": "address",
          "name": "from",
          "type": "address"
        },
        {
          "indexed": false,
          "internalType": "euint64",
          "name": "amount0In",
          "type": "bytes32"
        },
        {
          "indexed": false,
          "internalType": "euint64",
          "name": "amount1In",
          "type": "bytes32"
        },
        {
          "indexed": false,
          "internalType": "euint64",
          "name": "amount0Out",
          "type": "bytes32"
        },
        {
          "indexed": false,
          "internalType": "euint64",
          "name": "amount1Out",
          "type": "bytes32"
        },
        {
          "indexed": false,
          "internalType": "address",
          "name": "to",
          "type": "address"
        }
      ],
      "name": "Swap",
      "type": "event"
    },
    {
      "anonymous": false,
      "inputs": [
        {
          "indexed": false,
          "internalType": "address",
          "name": "from",
          "type": "address"
        },
        {
          "indexed": false,
          "internalType": "uint256",
          "name": "blockNumber",
          "type": "uint256"
        },
        {
          "indexed": false,
          "internalType": "uint256",
          "name": "requestID",
          "type": "uint256"
        }
      ],
      "name": "decryptionRequested",
      "type": "event"
    },
    {
      "anonymous": false,
      "inputs": [
        {
          "indexed": false,
          "internalType": "uint256",
          "name": "blockNumber",
          "type": "uint256"
        },
        {
          "indexed": false,
          "internalType": "address",
          "name": "user",
          "type": "address"
        },
        {
          "indexed": false,
          "internalType": "euint128",
          "name": "obfuscatedReserve0",
          "type": "bytes32"
        },
        {
          "indexed": false,
          "internalType": "euint128",
          "name": "obfuscatedReserve1",
          "type": "bytes32"
        }
      ],
      "name": "discloseReservesInfo",
      "type": "event"
    },
    {
      "anonymous": false,
      "inputs": [
        {
          "indexed": false,
          "internalType": "uint256",
          "name": "blockNumber",
          "type": "uint256"
        },
        {
          "indexed": false,
          "internalType": "address",
          "name": "user",
          "type": "address"
        }
      ],
      "name": "liquidityBurnt",
      "type": "event"
    },
    {
      "anonymous": false,
      "inputs": [
        {
          "indexed": false,
          "internalType": "uint256",
          "name": "blockNumber",
          "type": "uint256"
        },
        {
          "indexed": false,
          "internalType": "address",
          "name": "user",
          "type": "address"
        }
      ],
      "name": "liquidityMinted",
      "type": "event"
    },
    {
      "inputs": [],
      "name": "MINIMIMUM_LIQUIDITY",
      "outputs": [
        {
          "internalType": "uint64",
          "name": "",
          "type": "uint64"
        }
      ],
      "stateMutability": "view",
      "type": "function"
    },
    {
      "inputs": [
        {
          "internalType": "euint64",
          "name": "amount0",
          "type": "bytes32"
        },
        {
          "internalType": "euint64",
          "name": "amount1",
          "type": "bytes32"
        },
        {
          "internalType": "uint256",
          "name": "deadline",
          "type": "uint256"
        }
      ],
      "name": "addLiquidity",
      "outputs": [],
      "stateMutability": "nonpayable",
      "type": "function"
    },
    {
      "inputs": [
        {
          "internalType": "externalEuint64",
          "name": "encryptedAmount0",
          "type": "bytes32"
        },
        {
          "internalType": "externalEuint64",
          "name": "encryptedAmount1",
          "type": "bytes32"
        },
        {
          "internalType": "uint256",
          "name": "deadline",
          "type": "uint256"
        },
        {
          "internalType": "bytes",
          "name": "inputProof",
          "type": "bytes"
        }
      ],
      "name": "addLiquidity",
      "outputs": [],
      "stateMutability": "nonpayable",
      "type": "function"
    },
    {
      "inputs": [
        {
          "internalType": "uint256",
          "name": "requestID",
          "type": "uint256"
        },
        {
          "internalType": "bytes",
          "name": "cleartexts",
          "type": "bytes"
        },
        {
          "internalType": "bytes",
          "name": "decryptionProof",
          "type": "bytes"
        }
      ],
      "name": "addLiquidityCallback",
      "outputs": [],
      "stateMutability": "nonpayable",
      "type": "function"
    },
    {
      "inputs": [
        {
          "internalType": "address",
          "name": "account",
          "type": "address"
        }
      ],
      "name": "confidentialBalanceOf",
      "outputs": [
        {
          "internalType": "euint64",
          "name": "",
          "type": "bytes32"
        }
      ],
      "stateMutability": "view",
      "type": "function"
    },
    {
      "inputs": [],
      "name": "confidentialTotalSupply",
      "outputs": [
        {
          "internalType": "euint64",
          "name": "",
          "type": "bytes32"
        }
      ],
      "stateMutability": "view",
      "type": "function"
    },
    {
      "inputs": [
        {
          "internalType": "address",
          "name": "to",
          "type": "address"
        },
        {
          "internalType": "externalEuint64",
          "name": "encryptedAmount",
          "type": "bytes32"
        },
        {
          "internalType": "bytes",
          "name": "inputProof",
          "type": "bytes"
        }
      ],
      "name": "confidentialTransfer",
      "outputs": [
        {
          "internalType": "euint64",
          "name": "",
          "type": "bytes32"
        }
      ],
      "stateMutability": "nonpayable",
      "type": "function"
    },
    {
      "inputs": [
        {
          "internalType": "address",
          "name": "to",
          "type": "address"
        },
        {
          "internalType": "euint64",
          "name": "amount",
          "type": "bytes32"
        }
      ],
      "name": "confidentialTransfer",
      "outputs": [
        {
          "internalType": "euint64",
          "name": "",
          "type": "bytes32"
        }
      ],
      "stateMutability": "nonpayable",
      "type": "function"
    },
    {
      "inputs": [
        {
          "internalType": "address",
          "name": "to",
          "type": "address"
        },
        {
          "internalType": "euint64",
          "name": "amount",
          "type": "bytes32"
        },
        {
          "internalType": "bytes",
          "name": "data",
          "type": "bytes"
        }
      ],
      "name": "confidentialTransferAndCall",
      "outputs": [
        {
          "internalType": "euint64",
          "name": "transferred",
          "type": "bytes32"
        }
      ],
      "stateMutability": "nonpayable",
      "type": "function"
    },
    {
      "inputs": [
        {
          "internalType": "address",
          "name": "to",
          "type": "address"
        },
        {
          "internalType": "externalEuint64",
          "name": "encryptedAmount",
          "type": "bytes32"
        },
        {
          "internalType": "bytes",
          "name": "inputProof",
          "type": "bytes"
        },
        {
          "internalType": "bytes",
          "name": "data",
          "type": "bytes"
        }
      ],
      "name": "confidentialTransferAndCall",
      "outputs": [
        {
          "internalType": "euint64",
          "name": "transferred",
          "type": "bytes32"
        }
      ],
      "stateMutability": "nonpayable",
      "type": "function"
    },
    {
      "inputs": [
        {
          "internalType": "address",
          "name": "from",
          "type": "address"
        },
        {
          "internalType": "address",
          "name": "to",
          "type": "address"
        },
        {
          "internalType": "externalEuint64",
          "name": "encryptedAmount",
          "type": "bytes32"
        },
        {
          "internalType": "bytes",
          "name": "inputProof",
          "type": "bytes"
        }
      ],
      "name": "confidentialTransferFrom",
      "outputs": [
        {
          "internalType": "euint64",
          "name": "transferred",
          "type": "bytes32"
        }
      ],
      "stateMutability": "nonpayable",
      "type": "function"
    },
    {
      "inputs": [
        {
          "internalType": "address",
          "name": "from",
          "type": "address"
        },
        {
          "internalType": "address",
          "name": "to",
          "type": "address"
        },
        {
          "internalType": "euint64",
          "name": "amount",
          "type": "bytes32"
        }
      ],
      "name": "confidentialTransferFrom",
      "outputs": [
        {
          "internalType": "euint64",
          "name": "transferred",
          "type": "bytes32"
        }
      ],
      "stateMutability": "nonpayable",
      "type": "function"
    },
    {
      "inputs": [
        {
          "internalType": "address",
          "name": "from",
          "type": "address"
        },
        {
          "internalType": "address",
          "name": "to",
          "type": "address"
        },
        {
          "internalType": "externalEuint64",
          "name": "encryptedAmount",
          "type": "bytes32"
        },
        {
          "internalType": "bytes",
          "name": "inputProof",
          "type": "bytes"
        },
        {
          "internalType": "bytes",
          "name": "data",
          "type": "bytes"
        }
      ],
      "name": "confidentialTransferFromAndCall",
      "outputs": [
        {
          "internalType": "euint64",
          "name": "transferred",
          "type": "bytes32"
        }
      ],
      "stateMutability": "nonpayable",
      "type": "function"
    },
    {
      "inputs": [
        {
          "internalType": "address",
          "name": "from",
          "type": "address"
        },
        {
          "internalType": "address",
          "name": "to",
          "type": "address"
        },
        {
          "internalType": "euint64",
          "name": "amount",
          "type": "bytes32"
        },
        {
          "internalType": "bytes",
          "name": "data",
          "type": "bytes"
        }
      ],
      "name": "confidentialTransferFromAndCall",
      "outputs": [
        {
          "internalType": "euint64",
          "name": "transferred",
          "type": "bytes32"
        }
      ],
      "stateMutability": "nonpayable",
      "type": "function"
    },
    {
      "inputs": [],
      "name": "decimals",
      "outputs": [
        {
          "internalType": "uint8",
          "name": "",
          "type": "uint8"
        }
      ],
      "stateMutability": "view",
      "type": "function"
    },
    {
      "inputs": [
        {
          "internalType": "euint64",
          "name": "encryptedAmount",
          "type": "bytes32"
        }
      ],
      "name": "discloseEncryptedAmount",
      "outputs": [],
      "stateMutability": "nonpayable",
      "type": "function"
    },
    {
      "inputs": [],
      "name": "factory",
      "outputs": [
        {
          "internalType": "address",
          "name": "",
          "type": "address"
        }
      ],
      "stateMutability": "view",
      "type": "function"
    },
    {
      "inputs": [
        {
          "internalType": "uint256",
          "name": "requestId",
          "type": "uint256"
        },
        {
          "internalType": "bytes",
          "name": "cleartexts",
          "type": "bytes"
        },
        {
          "internalType": "bytes",
          "name": "signatures",
          "type": "bytes"
        }
      ],
      "name": "finalizeDiscloseEncryptedAmount",
      "outputs": [],
      "stateMutability": "nonpayable",
      "type": "function"
    },
    {
      "inputs": [
        {
          "internalType": "address",
          "name": "_token0",
          "type": "address"
        },
        {
          "internalType": "address",
          "name": "_token1",
          "type": "address"
        }
      ],
      "name": "initialize",
      "outputs": [],
      "stateMutability": "nonpayable",
      "type": "function"
    },
    {
      "inputs": [
        {
          "internalType": "address",
          "name": "holder",
          "type": "address"
        },
        {
          "internalType": "address",
          "name": "spender",
          "type": "address"
        }
      ],
      "name": "isOperator",
      "outputs": [
        {
          "internalType": "bool",
          "name": "",
          "type": "bool"
        }
      ],
      "stateMutability": "view",
      "type": "function"
    },
    {
      "inputs": [
        {
          "internalType": "address",
          "name": "from",
          "type": "address"
        },
        {
          "internalType": "uint256",
          "name": "requestID",
          "type": "uint256"
        }
      ],
      "name": "liquidityRemovalRefund",
      "outputs": [
        {
          "internalType": "euint64",
          "name": "lpAmount",
          "type": "bytes32"
        }
      ],
      "stateMutability": "view",
      "type": "function"
    },
    {
      "inputs": [],
      "name": "name",
      "outputs": [
        {
          "internalType": "string",
          "name": "",
          "type": "string"
        }
      ],
      "stateMutability": "view",
      "type": "function"
    },
    {
      "inputs": [],
      "name": "obfuscatedReserves",
      "outputs": [
        {
          "internalType": "euint128",
          "name": "obfuscatedReserve0",
          "type": "bytes32"
        },
        {
          "internalType": "euint128",
          "name": "obfuscatedReserve1",
          "type": "bytes32"
        }
      ],
      "stateMutability": "view",
      "type": "function"
    },
    {
      "inputs": [],
      "name": "protocolId",
      "outputs": [
        {
          "internalType": "uint256",
          "name": "",
          "type": "uint256"
        }
      ],
      "stateMutability": "pure",
      "type": "function"
    },
    {
      "inputs": [
        {
          "internalType": "externalEuint64",
          "name": "encryptedLPAmount",
          "type": "bytes32"
        },
        {
          "internalType": "address",
          "name": "to",
          "type": "address"
        },
        {
          "internalType": "uint256",
          "name": "deadline",
          "type": "uint256"
        },
        {
          "internalType": "bytes",
          "name": "inputProof",
          "type": "bytes"
        }
      ],
      "name": "removeLiquidity",
      "outputs": [],
      "stateMutability": "nonpayable",
      "type": "function"
    },
    {
      "inputs": [
        {
          "internalType": "euint64",
          "name": "lpAmount",
          "type": "bytes32"
        },
        {
          "internalType": "address",
          "name": "to",
          "type": "address"
        },
        {
          "internalType": "uint256",
          "name": "deadline",
          "type": "uint256"
        }
      ],
      "name": "removeLiquidity",
      "outputs": [],
      "stateMutability": "nonpayable",
      "type": "function"
    },
    {
      "inputs": [
        {
          "internalType": "uint256",
          "name": "requestID",
          "type": "uint256"
        },
        {
          "internalType": "bytes",
          "name": "cleartexts",
          "type": "bytes"
        },
        {
          "internalType": "bytes",
          "name": "decryptionProof",
          "type": "bytes"
        }
      ],
      "name": "removeLiquidityCallback",
      "outputs": [],
      "stateMutability": "nonpayable",
      "type": "function"
    },
    {
      "inputs": [
        {
          "internalType": "uint256",
          "name": "requestID",
          "type": "uint256"
        }
      ],
      "name": "requestLiquidityAddingRefund",
      "outputs": [],
      "stateMutability": "nonpayable",
      "type": "function"
    },
    {
      "inputs": [
        {
          "internalType": "uint256",
          "name": "requestID",
          "type": "uint256"
        }
      ],
      "name": "requestLiquidityRemovalRefund",
      "outputs": [],
      "stateMutability": "nonpayable",
      "type": "function"
    },
    {
      "inputs": [
        {
          "internalType": "uint256",
          "name": "requestID",
          "type": "uint256"
        }
      ],
      "name": "requestSwapRefund",
      "outputs": [],
      "stateMutability": "nonpayable",
      "type": "function"
    },
    {
      "inputs": [],
      "name": "scalingFactor",
      "outputs": [
        {
          "internalType": "uint64",
          "name": "",
          "type": "uint64"
        }
      ],
      "stateMutability": "view",
      "type": "function"
    },
    {
      "inputs": [
        {
          "internalType": "address",
          "name": "operator",
          "type": "address"
        },
        {
          "internalType": "uint48",
          "name": "until",
          "type": "uint48"
        }
      ],
      "name": "setOperator",
      "outputs": [],
      "stateMutability": "nonpayable",
      "type": "function"
    },
    {
      "inputs": [
        {
          "internalType": "address",
          "name": "from",
          "type": "address"
        },
        {
          "internalType": "uint256",
          "name": "requestID",
          "type": "uint256"
        }
      ],
      "name": "standardRefund",
      "outputs": [
        {
          "internalType": "euint64",
          "name": "amount0",
          "type": "bytes32"
        },
        {
          "internalType": "euint64",
          "name": "amount1",
          "type": "bytes32"
        }
      ],
      "stateMutability": "view",
      "type": "function"
    },
    {
      "inputs": [
        {
          "internalType": "euint64",
          "name": "amount0In",
          "type": "bytes32"
        },
        {
          "internalType": "euint64",
          "name": "amount1In",
          "type": "bytes32"
        },
        {
          "internalType": "address",
          "name": "to",
          "type": "address"
        },
        {
          "internalType": "uint256",
          "name": "deadline",
          "type": "uint256"
        }
      ],
      "name": "swapTokens",
      "outputs": [],
      "stateMutability": "nonpayable",
      "type": "function"
    },
    {
      "inputs": [
        {
          "internalType": "externalEuint64",
          "name": "encryptedAmount0In",
          "type": "bytes32"
        },
        {
          "internalType": "externalEuint64",
          "name": "encryptedAmount1In",
          "type": "bytes32"
        },
        {
          "internalType": "address",
          "name": "to",
          "type": "address"
        },
        {
          "internalType": "uint256",
          "name": "deadline",
          "type": "uint256"
        },
        {
          "internalType": "bytes",
          "name": "inputProof",
          "type": "bytes"
        }
      ],
      "name": "swapTokens",
      "outputs": [],
      "stateMutability": "nonpayable",
      "type": "function"
    },
    {
      "inputs": [
        {
          "internalType": "uint256",
          "name": "requestID",
          "type": "uint256"
        },
        {
          "internalType": "bytes",
          "name": "cleartexts",
          "type": "bytes"
        },
        {
          "internalType": "bytes",
          "name": "decryptionProof",
          "type": "bytes"
        }
      ],
      "name": "swapTokensCallback",
      "outputs": [],
      "stateMutability": "nonpayable",
      "type": "function"
    },
    {
      "inputs": [],
      "name": "symbol",
      "outputs": [
        {
          "internalType": "string",
          "name": "",
          "type": "string"
        }
      ],
      "stateMutability": "view",
      "type": "function"
    },
    {
      "inputs": [],
      "name": "token0Address",
      "outputs": [
        {
          "internalType": "address",
          "name": "",
          "type": "address"
        }
      ],
      "stateMutability": "view",
      "type": "function"
    },
    {
      "inputs": [],
      "name": "token1Address",
      "outputs": [
        {
          "internalType": "address",
          "name": "",
          "type": "address"
        }
      ],
      "stateMutability": "view",
      "type": "function"
    },
    {
      "inputs": [],
      "name": "tokenURI",
      "outputs": [
        {
          "internalType": "string",
          "name": "",
          "type": "string"
        }
      ],
      "stateMutability": "view",
      "type": "function"
    },
    {
      "inputs": [],
      "name": "zeroAddress",
      "outputs": [
        {
          "internalType": "address",
          "name": "",
          "type": "address"
        }
      ],
      "stateMutability": "view",
      "type": "function"
    }
  ],
  "bytecode": "0x60e0604052346103cc57604051610017604082610695565b600f81526e2634b8bab4b234ba3c902a37b5b2b760891b6020820152604051610041604082610695565b60048152632820a4a960e11b6020820152604051610060602082610695565b5f815282516001600160401b0381116104b257600354600181811c91168015610670575b602082101461049457601f811161060d575b506020601f82116001146105aa57819293945f9261059f575b50508160011b915f199060031b1c1916176003555b81516001600160401b0381116104b257600454600181811c91168015610595575b602082101461049457601f8111610532575b50602092601f82116001146104d157928192935f926104c6575b50508160011b915f199060031b1c1916176004555b80516001600160401b0381116104b257600554600181811c911680156104a8575b602082101461049457601f811161044e575b50602091601f82116001146103ee579181925f926103e3575b50508160011b915f199060031b1c1916176005555b5f60606040516101968161067a565b8281528260208201528260408201520152731364cbbf2cdf5032c47d8226a6f6fbd2afcdacac60606040516101ca8161067a565b73687820221192c5b662b25367f70076a37bc79b6c80825273848b0066793bcc60346da1f49049357399b8d595602080840182905273a02cda4ca3a71d7c46997716f4283aa851c28812604080860182905295909401959095525f516020615b375f395f51905f5280546001600160a01b031990811690931790557f9e7b61f58c47dc699ac88507c4f5bb9f121c03808c5676a8078fe583e464970180548316821790557f9e7b61f58c47dc699ac88507c4f5bb9f121c03808c5676a8078fe583e4649702805483169093179092557f9e7b61f58c47dc699ac88507c4f5bb9f121c03808c5676a8078fe583e46497038054909116731364cbbf2cdf5032c47d8226a6f6fbd2afcdacac179055600c80546001600160a81b0319163360081b610100600160a81b03161790559051639cd07acb60e01b81525f600482018190526005602483015290929183916044918391905af19081156103d8575f916103a2575b50608052620f424060a0526305f5e10060c05261035260805180601255806013556106b8565b5061035e6013546106b8565b506040516154209081610717823960805181505060a051818181610200015281816123830152613525015260c0518181816109a001528181612202015261331c0152f35b90506020813d6020116103d0575b816103bd60209383610695565b810103126103cc57515f61032c565b5f80fd5b3d91506103b0565b6040513d5f823e3d90fd5b015190505f80610172565b601f1982169260055f52805f20915f5b8581106104365750836001951061041e575b505050811b01600555610187565b01515f1960f88460031b161c191690555f8080610410565b919260206001819286850151815501940192016103fe565b60055f5260205f20601f830160051c8101916020841061048a575b601f0160051c01905b81811061047f5750610159565b5f8155600101610472565b9091508190610469565b634e487b7160e01b5f52602260045260245ffd5b90607f1690610147565b634e487b7160e01b5f52604160045260245ffd5b015190505f80610111565b601f1982169360045f52805f20915f5b86811061051a5750836001959610610502575b505050811b01600455610126565b01515f1960f88460031b161c191690555f80806104f4565b919260206001819286850151815501940192016104e1565b60045f527f8a35acfbc15ff81a39ae7d344fd709f28e8600b4aa8c65c6b64bfe7fe36bd19b601f830160051c8101916020841061058b575b601f0160051c01905b81811061058057506100f7565b5f8155600101610573565b909150819061056a565b90607f16906100e5565b015190505f806100af565b601f1982169060035f52805f20915f5b8181106105f5575095836001959697106105dd575b505050811b016003556100c4565b01515f1960f88460031b161c191690555f80806105cf565b9192602060018192868b0151815501940192016105ba565b60035f527fc2575a0e9e593c00f959f8c92f12db2869c3395a3b0502d05e2516446f71f85b601f830160051c81019160208410610666575b601f0160051c01905b81811061065b5750610096565b5f815560010161064e565b9091508190610645565b90607f1690610084565b608081019081106001600160401b038211176104b257604052565b601f909101601f19168101906001600160401b038211908210176104b257604052565b5f516020615b375f395f51905f52546001600160a01b0316803b156103cc575f8091604460405180948193635ca4b5b160e11b83528760048401523060248401525af180156103d857610709575090565b5f61071391610695565b9056fe6080806040526004361015610012575f80fd5b5f905f3560e01c90816306fdde031461256c575080630930907b146125445780630a56d33c146123145780630d8dfe7b146122265780631d1d1d28146121e357806325225a7114611f535780632fb74e6214611f08578063313ce56714611eed578063344ff10114611eb657806334c4574314611dba5780633c130d9014611cfd578063485cc95514611c6a578063537d3c5014611c125780635409522714611bf45780635bebed7e14611bbc578063688350bd14611b79578063714c9e5714611b2b57806378aeaafd14611a855780637f8ae0e714611a205780637ff36fbe146119f757806395d89b41146118e657806397d0f0101461165b57806398883d18146115455780639a751347146114495780639d9d2e17146113db578063a573a9f61461135c578063b5de610614610fd5578063b6363cf214610f9e578063b9fe7c1c1461082f578063c45a015514610802578063c535803c146107ae578063c7b8a75e1461073b578063c9dec8dc14610716578063d4febb9614610684578063d7cb416f1461065b578063da1f12ab1461063e578063dc3038ac146103d9578063de6421191461035a578063e064b9bb1461025f578063eb3155b5146102275763ed3437f8146101e1575f80fd5b3461022457806003193601126102245760206040516001600160401b037f0000000000000000000000000000000000000000000000000000000000000000168152f35b80fd5b5034610224576060366003190112610224576020610257610246612788565b61024e612772565b60443591612970565b604051908152f35b503461022457608036600319011261022457610279612788565b610281612772565b90606435916001600160401b038311610356576102ce6102c66102ab6102d49536906004016127b4565b6102bf33876102ba3382612924565b612846565b36916126d1565b60443561371c565b91613869565b5f5160206153d45f395f51905f52546001600160a01b0316803b1561035257826040518092630f8e573b60e21b82528183816103143389600484016128ba565b03925af180156103475761032e575b602082604051908152f35b610339838092612681565b6103435781610323565b5080fd5b6040513d85823e3d90fd5b8280fd5b8380fd5b503461022457608036600319011261022457610374612788565b6044356001600160401b038111610352576103939036906004016127b4565b606435926001600160401b0384116103d5576103ce6103c66103bc6102d49636906004016127b4565b95909436916126d1565b60243561371c565b903361389c565b8480fd5b5034610224576103e836612725565b826016540361062f57610432826104237fe647dc2c1eab2bb66270ff4a61fff662a1c56f03607215f3f2529399b868b4dc9360c095876129f9565b60208082518301019101612899565b848694929452600860205260408620549085875260086020526104a4610499600160408a20015492888a52600860205261049e6104998b6004604060018060a01b039220015416998b8d5260086020528c6005604060018060a01b03922001541697613959565b6147f2565b93613959565b906104af3082614fec565b6104b93083614fec565b6104c4828285612f23565b868852600960205260408820558587526009602052600160408820015584865260086020526104fa846002604089200154614fec565b8486526008602052610513846003604089200154614fec565b8486526009602052610529846040882054614fec565b8486526009602052610542846001604089200154614fec565b848652600860205261055b306002604089200154614fec565b8486526008602052610574306003604089200154614fec565b848652600960205261058a306040882054614fec565b84865260096020526105a3306001604089200154614fec565b848652600860205260026040872001549085875260086020526003604088200154868852600960205260408820548789526009602052600160408a2001549160405194888652602086015260408501526060840152608083015260a0820152a15f6016555f6017555f6018558252600a602052604082209082526020525f600160408320828155015580f35b633433e69960e21b8452600484fd5b503461022457806003193601126102245760206040516127118152f35b5034610224578060031936011261022457600f546040516001600160a01b039091168152602090f35b50346102245760403660031901126102245761069e612788565b6024359065ffffffffffff821680920361035257338084526001602090815260408086206001600160a01b03949094165f81815294835293819020805465ffffffffffff19168617905551938452919290917f921a218a75d18e8ec5704851e6b234a85725b21a2521ce889622c35dedc1fa1291a380f35b5034610224578060031936011261022457604060145460155482519182526020820152f35b503461022457608036600319011261022457610755612788565b61075d612772565b606435916044356001600160401b0384116103d5576107836102d49436906004016127b4565b93909261079a3384610795338261416c565b612873565b6107a933826102ba3382612924565b61389c565b5034610224576020366003190112610224576107fe6004356107d53382610795338261416c565b604051906107e4604083612681565b60018252602036818401376107f8826128d3565b52614e0f565b5080f35b5034610224578060031936011261022457600c5460405160089190911c6001600160a01b03168152602090f35b5034610224576080366003190112610224576064356001600160401b03811161034357906108876108676103c69336906004016127b4565b939061087f6108773687846126d1565b60043561371c565b9436916126d1565b600e545f5160206153d45f395f51905f52546001600160a01b039081169116813b15610356576108d184928392604051948580948193630f8e573b60e21b83528b600484016128ba565b03925af1801561034757908391610f89575b5050600f545f5160206153d45f395f51905f52546001600160a01b039081169116813b156103565761092f84928392604051948580948193630f8e573b60e21b835289600484016128ba565b03925af1801561034757908391610f74575b5050604435421015610f655760ff6017541680610f3a575b610f0757819260ff600c5416155f14610c535761097c6109d192606092336144c3565b604051630302e8fb60e21b8152600481019290925260248201526001600160401b037f000000000000000000000000000000000000000000000000000000000000000016604482015291829081906064820190565b038173__$17ea0f45663d80b7ef38b5f09fba8482e6$__5af48015610c4857829183908492610c04575b50600e545f5160206153d45f395f51905f52546001600160a01b039182169116803b15610beb57604051630f8e573b60e21b81529186918391829084908290610a489089600484016128ba565b03925af1908115610be0578591610bef575b5050600f545f5160206153d45f395f51905f52546001600160a01b039182169116803b15610beb57604051630f8e573b60e21b81529186918391829084908290610aa8908a600484016128ba565b03925af1908115610be0578591610bc6575b50601054604051632df5f6bf60e11b81529260209284926001600160a01b0316918391908290610aee903360048401612b47565b03925af18015610bbb57610b85575b50601154604051632df5f6bf60e11b81529360209285926001600160a01b03169183918290610b30903360048401612b47565b03925af1801561034757610b4e575b610b4b915033906132e5565b80f35b6020823d602011610b7d575b81610b6760209383612681565b81010312610b7957610b4b9150610b3f565b5f80fd5b3d9150610b5a565b92506020833d602011610bb3575b81610ba060209383612681565b81010312610b7957839250610b30610afd565b3d9150610b93565b6040513d86823e3d90fd5b81610bd091612681565b610bdb57835f610aba565b505050fd5b6040513d87823e3d90fd5b8580fd5b81610bf991612681565b610bdb57835f610a5a565b925050506060813d606011610c40575b81610c2160609383612681565b81010312610c3d5780516040602083015192015190915f6109fb565b50fd5b3d9150610c14565b6040513d84823e3d90fd5b610c5e9250336141f9565b610c696002546147a3565b6012549060135460405192636b0e9ec560e11b845260048401526024830152604482015260808160648173__$17ea0f45663d80b7ef38b5f09fba8482e6$__5af4918215610bbb575f5160206152f45f395f51905f5293610ec593868788958993610ecb575b5090610d239160405191610ce460a084612681565b600483526080366020850137610cf9836128d3565b52610d03826128f4565b52601454610d1082612904565b52601554610d1d82612914565b52614a55565b938488526006602052826040892055848852600660205283600160408a200155848852600660205260026040892001558387526006602052600360408820015582865260066020526004604087200160018060a01b03331660018060a01b03198254161790558286526006602052610da060408720543090614fec565b8286526006602052610db9306001604089200154614fec565b8286526006602052610dd2306002604089200154614fec565b8286526006602052610deb306003604089200154614fec565b8260165542601855600160ff196017541617601755338652600a602052604086208387526020526040862055338552600a602052604085208286526020526001604086200155338452600a60205260408420818552602052610e51306040862054614fec565b338452600a60205260408420818552602052610e74306001604087200154614fec565b338452600a60205260408420818552602052610e94336040862054614fec565b338452600a60205260408420818552602052610eb7336001604087200154614fec565b604051918291433384612828565b0390a180f35b915050610d239450610ef5915060803d608011610f00575b610eed8183612681565b810190613813565b909590929190610ccf565b503d610ee3565b60248260185461012c8101809111610f2857632f3cd79160e21b8252600452fd5b50634e487b7160e01b81526011600452fd5b5060185461012c8101809111610f51574210610959565b634e487b7160e01b83526011600452602483fd5b630407b05b60e31b8252600482fd5b81610f7e91612681565b61034357815f610941565b81610f9391612681565b61034357815f6108e3565b5034610224576040366003190112610224576020610fcb610fbd612788565b610fc5612772565b90612924565b6040519015158152f35b50346102245760a036600319011261022457610fef61279e565b608435906001600160401b038211610352576110156108676103c69336906004016127b4565b600e545f5160206153d45f395f51905f525491929185916001600160a01b039081169116803b1561035257604051630f8e573b60e21b81529183918391829084908290611066908c600484016128ba565b03925af18015610c4857611347575b50600f545f5160206153d45f395f51905f52546001600160a01b039182169116803b1561035257604051630f8e573b60e21b815291839183918290849082906110c2908b600484016128ba565b03925af18015610c4857611332575b50506064354210156113235760ff60175416806112f8575b6112d75761113a906110fc8385336144c3565b916080601254601354906040519687928392632c9b43ad60e21b84528888600486019094939260609260808301968352602083015260408201520152565b038173__$17ea0f45663d80b7ef38b5f09fba8482e6$__5af49485156112cc575f5160206152f45f395f51905f5296610ec59689968a918b918c916112a0575b50906111b4916040519161118f606084612681565b6002835260403660208501376111a4836128d3565b526111ae826128f4565b52614c32565b96878b52600860205260408b2055868a526008602052600160408b2001558589526008602052600260408a2001558488526008602052600360408920015583875260086020526004604088200160018060a01b03331660018060a01b03198254161790558387526008602052600560408820019060018060a01b031660018060a01b0319825416179055828652600860205261125560408720543090614fec565b828652600860205261126e306001604089200154614fec565b8286526008602052611287306002604089200154614fec565b8286526008602052610deb306003604089200154614fec565b9150506111b497506112c1915060803d608011610f0057610eed8183612681565b90929891929161117a565b6040513d89823e3d90fd5b60248460185461012c8101809111610f2857632f3cd79160e21b8252600452fd5b5060185461012c810180911161130f5742106110e9565b634e487b7160e01b85526011600452602485fd5b630407b05b60e31b8452600484fd5b8161133c91612681565b61035657835f6110d1565b8161135191612681565b61035657835f611075565b50346102245761137861136e36612725565b81839492936129f9565b6020818051810103126103525760200151906001600160401b0382168092036103525760206113cf6113ca7f83bbbc07896439e5d950a6cead04cbc676180af7a61cecf43f5296475057f57193613a4e565b6128d3565b5192604051908152a280f35b5034610224576080366003190112610224576004356024356113fb61279e565b600e545f5160206153d45f395f51905f525485916001600160a01b039081169116803b1561035257604051630f8e573b60e21b81529183918391829084908290611066908c600484016128ba565b503461022457602036600319011261022457600435338252600a602052604082208183526020526040822054158015611524575b61151557610ec55f5160206153945f395f51905f5291338452600a602052604084208185526020526114ce6040852054338652600a6020526040862083875260205260016040872001549033612f23565b6016548114611504575b338452600a602052604084208185526020525f6001604086208281550155604051918291433384612828565b5f6016555f6017555f6018556114d8565b63c6dfc20160e01b8252600482fd5b50338252600a6020526040822081835260205260016040832001541561147d565b50346102245761155436612725565b826016540361062f576115f061157383610423611601948896886129f9565b858593929352600760205260408520549286865260076020526115ea610499600160408920015493898952600760205261049e610499600260408c200154958c8c5260076020528c8c6003604060018060a01b0392200154169c5260076020528d6004604060018060a01b03922001541697613959565b91612f23565b6115fb301515613835565b30613d11565b507f3dbaca5d4554979be94eae55db85f4a40d3b96dd626d153692dc87db3347de4e604051806116328443836128ba565b0390a15f6016555f6017555f6018558252600b6020526040822090825260205280604081205580f35b503461022457606036600319011261022457611675612772565b604435421015610f655760ff60175416806118cf575b610f0757308252816020526116bd60408320546116ab6004353033612970565b50308452836020526040842054613b24565b8060806116cb6002546147a3565b601254601354604051634aac572360e01b815260048101929092526024820152604481019390935260648301528160848173__$17ea0f45663d80b7ef38b5f09fba8482e6$__5af4918215610bbb575f5160206152f45f395f51905f5293610ec59386938791889189916118a3575b5090611774916040519161174f606084612681565b600283526040366020850137611764836128d3565b5261176e826128f4565b52614841565b938488526007602052836040892055848852600760205260016040892001558387526007602052600260408820015582865260076020526003604087200160018060a01b03331660018060a01b03198254161790558286526007602052600460408720019060018060a01b031660018060a01b03198254161790558185526007602052611805306040872054614fec565b818552600760205261181e306001604088200154614fec565b8185526007602052611837306002604088200154614fec565b8160165542601855600160ff196017541617601755338552600b602052604085208286526020526040852055338452600b60205260408420818552602052611883306040862054614fec565b338452600b60205260408420818552602052610eb7336040862054614fec565b91505061177494506118c4915060803d608011610f0057610eed8183612681565b90929591929161173a565b5060185461012c8101809111610f5157421061168b565b50346102245780600319360112610224576040519080600454908160011c916001811680156119ed575b6020841081146119d9578386529081156119b25750600114611955575b6119518461193d81860382612681565b60405191829160208352602083019061265d565b0390f35b600481527f8a35acfbc15ff81a39ae7d344fd709f28e8600b4aa8c65c6b64bfe7fe36bd19b939250905b8082106119985750909150810160200161193d8261192d565b91926001816020925483858801015201910190929161197f565b60ff191660208087019190915292151560051b8501909201925061193d915083905061192d565b634e487b7160e01b83526022600452602483fd5b92607f1692611910565b5034610224578060031936011261022457600e546040516001600160a01b039091168152602090f35b503461022457606036600319011261022457600e545f5160206153d45f395f51905f52546004359291602435916001600160a01b039081169116813b15610356576108d184928392604051948580948193630f8e573b60e21b83528b600484016128ba565b503461022457602036600319011261022457600435338252600b6020526040822081835260205260408220541561151557610ec55f5160206153945f395f51905f5291338452600b60205260408420818552602052611ae960408520543330613869565b506016548114611b1a575b338452600b60205260408420818552602052836040812055604051918291433384612828565b5f6016555f6017555f601855611af4565b50346102245760403660031901126102245760409081906001600160a01b03611b52612788565b168152600a6020528181206024358252602052206001815491015482519182526020820152f35b5034610224576040366003190112610224576020906040906001600160a01b03611ba1612788565b168152600b8352818120602435825283522054604051908152f35b5034610224576040366003190112610224576020610257611bdb612788565b60243590611bee3383610795338261416c565b33613869565b50346102245780600319360112610224576020600254604051908152f35b503461022457606036600319011261022457611c2c612788565b602435604435916001600160401b03831161035657611c526102d49336906004016127b4565b929091611c643383610795338261416c565b3361389c565b503461022457604036600319011261022457611c84612788565b611c8c612772565b600c5490919060081c6001600160a01b03163303611cee57601080546001600160a01b039283166001600160a01b0319918216811790925560118054949093169381168417909255600e805483169091179055600f8054909116909117905580f35b631dd2188d60e31b8352600483fd5b50346102245780600319360112610224576040519080600554908160011c91600181168015611db0575b6020841081146119d9578386529081156119b25750600114611d53576119518461193d81860382612681565b600581527f036b6384b5eca791c62761152d0c79bb0604c104a5fb6f4eb0703f3154bb3db0939250905b808210611d965750909150810160200161193d8261192d565b919260018160209254838588010152019101909291611d7d565b92607f1692611d27565b34610b795760a0366003190112610b7957611dd3612788565b611ddb612772565b906064356001600160401b038111610b7957611dfb9036906004016127b4565b9091608435936001600160401b038511610b7957611e386102c6611e26611e3e9736906004016127b4565b9690956102bf33876102ba3382612924565b9161389c565b5f5160206153d45f395f51905f52546001600160a01b031690813b15610b79575f6040518093630f8e573b60e21b8252818381611e7f3388600484016128ba565b03925af1918215611eab57602092611e9b575b50604051908152f35b5f611ea591612681565b5f611e92565b6040513d5f823e3d90fd5b34610b79576020366003190112610b79576001600160a01b03611ed7612788565b165f525f602052602060405f2054604051908152f35b34610b79575f366003190112610b7957602060405160068152f35b34610b79576060366003190112610b7957611f21612788565b6044356001600160401b038111610b7957602091611f4c6103c66102bf6102579436906004016127b4565b9033613869565b34610b79576080366003190112610b7957611f6c612772565b6064356001600160401b038111610b79576108776102bf611f919236906004016127b4565b6044354210156121d45760ff60175416806121bd575b61218857611fd890305f525f602052611fc660405f2054913033612970565b50305f525f60205260405f2054613b24565b806080611fe66002546147a3565b601254601354604051634aac572360e01b815260048101929092526024820152604481019390935260648301528160848173__$17ea0f45663d80b7ef38b5f09fba8482e6$__5af4918215611eab575f5160206152f45f395f51905f5293612157935f935f915f915f9161215c575b509061206a916040519161174f606084612681565b5f818152600760205260409020848155600181019590955560028501919091556003840180546001600160a01b03199081163317909155600490940180549094166001600160a01b0392909216919091179092556120c83082614fec565b815f5260076020526120e130600160405f200154614fec565b815f5260076020526120fa30600260405f200154614fec565b6016829055426018556017805460ff19166001179055335f908152600b602090815260408083208584529091529020819055612137903090614fec565b335f52600b60205260405f20815f52602052610eb73360405f2054614fec565b0390a1005b91505061206a945061217d915060803d608011610f0057610eed8183612681565b909295919291612055565b60185461012c81018091116121a957632f3cd79160e21b5f5260045260245ffd5b634e487b7160e01b5f52601160045260245ffd5b5060185461012c81018091116121a9574210611fa7565b630407b05b60e31b5f5260045ffd5b34610b79575f366003190112610b795760206040516001600160401b037f0000000000000000000000000000000000000000000000000000000000000000168152f35b34610b79576020366003190112610b7957600435335f52600a60205260405f20815f5260205260405f20541580156122f3575b6122e457335f818152600a60209081526040808320858452909152902080546001909101545f5160206153945f395f51905f529361215793909261229d9291612b62565b60165481146122d3575b335f52600a60205260405f20815f526020525f6001604082208281550155604051918291433384612828565b5f6016555f6017555f6018556122a7565b63c6dfc20160e01b5f5260045ffd5b50335f52600a60205260405f20815f52602052600160405f20015415612259565b34610b795761232236612725565b8260165403612535576123369082846129f9565b608081805181010312610b795761234f602082016127e1565b9061235c604082016127e1565b90612375608061236e606084016127e1565b92016127e1565b906123c76001600160401b037f000000000000000000000000000000000000000000000000000000000000000016926123c1846123bb6123b582856127f5565b866127f5565b946127f5565b906127f5565b5f86815260066020526040908190208054600182015460028301546003840154600494850154955163dea9e18f60e01b8152948501939093526024840191909152604483015260648201526001600160801b03968716608482015294861660a486015291851660c485015290931660e48301526101048201526001600160a01b039091169060a0816101248173__$17ea0f45663d80b7ef38b5f09fba8482e6$__5af48015611eab57825f5f5f915f955f956124e2575b50836124a6936124996124b5989461249e946124af98612b62565b6132e5565b60125461342c565b9160135461342c565b906134df565b5f6016555f6017555f6018555f52600a60205260405f20905f526020525f60016040822082815501555f80f35b9550505050505060a0813d60a01161252d575b8161250260a09383612681565b81010312610b79578051602082015160408301516060840151608090940151928592906124af61247e565b3d91506124f5565b633433e69960e21b5f5260045ffd5b34610b79575f366003190112610b7957600d546040516001600160a01b039091168152602090f35b34610b79575f366003190112610b79575f6003548060011c90600181168015612653575b60208310811461263f5782855290811561261b57506001146125bd575b6119518361193d81850382612681565b60035f9081527fc2575a0e9e593c00f959f8c92f12db2869c3395a3b0502d05e2516446f71f85b939250905b8082106126015750909150810160200161193d6125ad565b9192600181602092548385880101520191019092916125e9565b60ff191660208086019190915291151560051b8401909101915061193d90506125ad565b634e487b7160e01b5f52602260045260245ffd5b91607f1691612590565b805180835260209291819084018484015e5f828201840152601f01601f1916010190565b90601f801991011681019081106001600160401b038211176126a257604052565b634e487b7160e01b5f52604160045260245ffd5b6001600160401b0381116126a257601f01601f191660200190565b9291926126dd826126b6565b916126eb6040519384612681565b829481845281830111610b79578281602093845f960137010152565b9080601f83011215610b7957816020612722933591016126d1565b90565b6060600319820112610b7957600435916024356001600160401b038111610b79578261275391600401612707565b91604435906001600160401b038211610b795761272291600401612707565b602435906001600160a01b0382168203610b7957565b600435906001600160a01b0382168203610b7957565b604435906001600160a01b0382168203610b7957565b9181601f84011215610b79578235916001600160401b038311610b795760208381860195010111610b7957565b51906001600160801b0382168203610b7957565b6001600160801b03909116908115612814576001600160801b03160490565b634e487b7160e01b5f52601260045260245ffd5b604091949392606082019560018060a01b0316825260208201520152565b1561284f575050565b630f3e596760e31b5f9081526001600160a01b039182166004529116602452604490fd5b1561287c575050565b6367cfe80560e01b5f5260045260018060a01b031660245260445ffd5b9190826040910312610b795761272260206128b3846127e1565b93016127e1565b9081526001600160a01b03909116602082015260400190565b8051156128e05760200190565b634e487b7160e01b5f52603260045260245ffd5b8051600110156128e05760400190565b8051600210156128e05760600190565b8051600310156128e05760800190565b6001600160a01b0382811691169081149190821561294157505090565b9091505f52600160205260405f209060018060a01b03165f5260205265ffffffffffff60405f20541642111590565b9061299992916129853384610795338261416c565b61299433826102ba3382612924565b613869565b5f5160206153d45f395f51905f52549091906001600160a01b0316803b15610b79575f6040518092630f8e573b60e21b82528183816129dc338a600484016128ba565b03925af18015611eab576129ed5750565b5f6129f791612681565b565b9190612a0483613a4e565b8151928360200193846020116121a9576040018094116121a957612aa75f60209493612a5486808097612ab99a60405199828b9351918291018585015e8201908382015203018088520186612681565b612acb60018060a01b037f9e7b61f58c47dc699ac88507c4f5bb9f121c03808c5676a8078fe583e4649703541694604051988997889687956378542ead60e01b8752606060048801526064870190613af1565b8581036003190160248701529061265d565b8381036003190160448501529061265d565b03925af1908115611eab575f91612b18575b5015612b09577f1af0453083661051f6e56e5c070792320652e612154bf9af8637bb1e7655b99d5f80a2565b63cf6c44e960e01b5f5260045ffd5b612b3a915060203d602011612b40575b612b328183612681565b810190613ad9565b5f612add565b503d612b28565b6001600160a01b039091168152602081019190915260400190565b60105460405163344ff10160e01b815230600482015291935f9391602090849060249082906001600160a01b03165afa918215611eab575f92612eee575b60115460405163344ff10160e01b81523060048201529450602090859060249082906001600160a01b03165afa938415611eab575f94612eba575b50600e545f5160206153d45f395f51905f52546001600160a01b039182169116803b15610b7957604051630f8e573b60e21b8152915f918391829084908290612c289089600484016128ba565b03925af18015611eab57612ea5575b50600f545f5160206153d45f395f51905f52546001600160a01b039081169116813b15612ea157612c8287928392604051948580948193630f8e573b60e21b83528a600484016128ba565b03925af18015612e9657908691612e81575b50601054604051632df5f6bf60e11b81529260209284926001600160a01b0316918391908290612cc8908d60048401612b47565b03925af18015610be057612e4e575b50601154604051632df5f6bf60e11b81529560209287926001600160a01b031691839188918391612d0b9160048401612b47565b03925af1801561034757612e1c575b60105460405163344ff10160e01b81523060048201529450602090859060249082906001600160a01b03165afa938415610347578394612de8575b5060115460405163344ff10160e01b815230600482015290602090829060249082906001600160a01b03165afa938415612ddc5793612da6575b50612da393612d9d91613b24565b50613b24565b50565b9092506020813d602011612dd4575b81612dc260209383612681565b81010312610b79575191612da3612d8f565b3d9150612db5565b604051903d90823e3d90fd5b9093506020813d602011612e14575b81612e0460209383612681565b81010312610b795751925f612d55565b3d9150612df7565b6020843d602011612e46575b81612e3560209383612681565b81010312610b795760249350612d1a565b3d9150612e28565b906020823d602011612e79575b81612e6860209383612681565b81010312610b795790506020612cd7565b3d9150612e5b565b81612e8b91612681565b6103d557845f612c94565b6040513d88823e3d90fd5b8680fd5b612eb29195505f90612681565b5f935f612c37565b9093506020813d602011612ee6575b81612ed660209383612681565b81010312610b795751925f612bdb565b3d9150612ec9565b91506020833d602011612f1b575b81612f0960209383612681565b81010312610b79576024925191612ba0565b3d9150612efc565b60105460405163344ff10160e01b8152306004820152919391925f929091602090859060249082906001600160a01b03165afa918215611eab575f926132b0575b60115460405163344ff10160e01b81523060048201529550602090869060249082906001600160a01b03165afa948515611eab575f9561327c575b50600e545f5160206153d45f395f51905f52546001600160a01b039182169116803b15610b7957604051630f8e573b60e21b8152915f918391829084908290612fec9089600484016128ba565b03925af18015611eab57613267575b50600f545f5160206153d45f395f51905f52546001600160a01b039081169116813b15610beb5761304686928392604051948580948193630f8e573b60e21b83528a600484016128ba565b03925af18015610be057908591613252575b50601054604051632df5f6bf60e11b81529260209284926001600160a01b031691839190829061308c908d60048401612b47565b03925af18015610bbb5761321f575b50601154604051632df5f6bf60e11b81529560209287926001600160a01b0316918391879183916130cf9160048401612b47565b03925af18015610c48576131ed575b60105460405163344ff10160e01b81523060048201529450602090859060249082906001600160a01b03165afa938415610c485782946131b9575b5060115460405163344ff10160e01b815230600482015290602090829060249082906001600160a01b03165afa928315612ddc5792613183575b506131716124af9261316b6129f79661317a94613b24565b94613b24565b92601254613b24565b91601354613b24565b9091506020813d6020116131b1575b8161319f60209383612681565b81010312610b79575190613171613153565b3d9150613192565b9093506020813d6020116131e5575b816131d560209383612681565b81010312610b795751925f613119565b3d91506131c8565b6020843d602011613217575b8161320660209383612681565b81010312610b7957602493506130de565b3d91506131f9565b906020823d60201161324a575b8161323960209383612681565b81010312610b79579050602061309b565b3d915061322c565b8161325c91612681565b61035657835f613058565b6132749194505f90612681565b5f925f612ffb565b9094506020813d6020116132a8575b8161329860209383612681565b81010312610b795751935f612f9f565b3d915061328b565b91506020843d6020116132dd575b816132cb60209383612681565b81010312610b79576024935191612f64565b3d91506132be565b600c5460ff1661340a5780156133f6575b5f5160206153545f395f51905f52546040516303056db360e31b815260048101929092527f00000000000000000000000000000000000000000000000000000000000000006001600160401b03166024830152600160f81b6044830152602090829060649082905f906001600160a01b03165af1908115611eab575f916133b7575b505f5160206153345f395f51905f52916133b2916133969082613bb9565b50600160ff19600c541617600c555b60405191829143836128ba565b0390a1565b90506020813d6020116133ee575b816133d260209383612681565b81010312610b7957515f5160206153345f395f51905f52613378565b3d91506133c5565b505f602061340261502f565b9150506132f6565b816134266133b2925f5160206153345f395f51905f5294613bb9565b506133a5565b9081156134cf575b80156134bd575b602090606460018060a01b035f5160206153545f395f51905f525416935f604051958694859363022f65e760e31b8552600485015260248401528160448401525af1908115611eab575f9161348e575090565b90506020813d6020116134b5575b816134a960209383612681565b81010312610b79575190565b3d915061349c565b5060206134c861502f565b905061343b565b90506134d961502f565b90613434565b6134f3905f92816012556013553090614fec565b6134ff30601354614fec565b6012546013546040805163a2baac7560e01b8152600481019390935260248301919091527f00000000000000000000000000000000000000000000000000000000000000006001600160401b031660448301528160648173__$17ea0f45663d80b7ef38b5f09fba8482e6$__5af48015611eab575f905f906136e1575b61358f9250816014556015553090614fec565b61359b30601554614fec565b60145460409081516135ad8382612681565b60018152601f19830191823660208401376135c7826128d3565b525f5160206153d45f395f51905f52546001600160a01b0316803b15610b79578351637d6e912360e11b815260206004820152915f918391829084908290613613906024830190613af1565b03925af180156136d7576136c2575b506015548251916136338484612681565b60018352366020840137613646826128d3565b525f5160206153d45f395f51905f52546001600160a01b031690813b15610356576136938392859492859351958680948193637d6e912360e11b8352602060048401526024830190613af1565b03925af19081156136b957506136a7575050565b6136b2828092612681565b6102245750565b513d84823e3d90fd5b6136cf9193505f90612681565b5f915f613622565b83513d5f823e3d90fd5b50506040813d604011613714575b816136fc60409383612681565b81010312610b795780602061358f925191015161357c565b3d91506136ef565b61376b9160209160018060a01b035f5160206153545f395f51905f525416905f60405180968195829463196d0b9b60e01b8452600484015233602484015260806044840152608483019061265d565b6005606483015203925af1908115611eab575f916137e1575b505f5160206153d45f395f51905f52546001600160a01b0316803b15610b79575f6040518092630f8e573b60e21b82528183816137c53389600484016128ba565b03925af18015611eab576137d7575090565b5f61272291612681565b90506020813d60201161380b575b816137fc60209383612681565b81010312610b7957515f613784565b3d91506137ef565b9190826080910312610b79578151916020810151916060604083015192015190565b1561383c57565b63ee457ebf60e01b5f525f60045260245ffd5b1561385657565b638d51880160e01b5f525f60045260245ffd5b6127229291906138836001600160a01b0382161515613835565b6138976001600160a01b038316151561384f565b613e7e565b936138ac6138b692938487613869565b938484873361404e565b9060206138c161502f565b606460018060a01b035f5160206153545f395f51905f525416945f6040519687948593637702dcff60e01b8552600485015260248401528860448401525af1918215611eab575f92613923575b50906127229361391d92613e7e565b90613b24565b91506020823d602011613951575b8161393e60209383612681565b81010312610b795790519061272261390e565b3d9150613931565b9081156139c7575b5f5160206153545f395f51905f5254604051635a53accb60e01b815260048101939093526001600160801b039091166024830152600160f81b6044830152602090829060649082905f906001600160a01b03165af1908115611eab575f9161348e575090565b5f5160206153545f395f51905f5254604051639cd07acb60e01b81525f60048201529192506001600160a01b0316816044815f602094600660248401525af18015611eab575f90613a1b575b919050613961565b506020813d602011613a46575b81613a3560209383612681565b81010312610b795760209051613a13565b3d9150613a28565b805f525f5160206153145f395f51905f5260205260405f205415613aca575f525f5160206153145f395f51905f5260205260405f20604051808260208294549384815201905f5260205f20925f5b818110613ab157505061272292500382612681565b8454835260019485019486945060209093019201613a9c565b63d66ca67560e01b5f5260045ffd5b90816020910312610b7957518015158103610b795790565b90602080835192838152019201905f5b818110613b0e5750505090565b8251845260209384019390920191600101613b01565b6020905f928115613ba9575b8015613b9b575b5f5160206153545f395f51905f52546040516303056db360e31b8152600480820194909452848101909301919091526001600160f81b0319841660448301529092839160649183916001600160a01b03165af1908115611eab575f9161348e575090565b50613ba461502f565b613b37565b9050613bb361502f565b90613b30565b6001600160a01b0381168015918215613bd18161384f565b6020613bdf866002546151f4565b909690613bec3082614fec565b6002556064613bf961502f565b5f5160206153545f395f51905f5254604051637702dcff60e01b8152600481019a909a5260248a01939093526044890152879182905f906001600160a01b03165af1938415611eab575f94613cdc575b939450849315613ca257613c5f84600254613b24565b613c693082614fec565b6002555b613c92575b50613c7d3083614fec565b5f5f5160206153745f395f51905f528180a490565b613c9c9083614fec565b5f613c72565b825f525f602052613cb78460405f205461342c565b613cc13082614fec565b613ccb8382614fec565b835f525f60205260405f2055613c6d565b9350936020813d602011613d09575b81613cf860209383612681565b81010312610b795751928490613c49565b3d9150613ceb565b6001600160a01b03811680159392908415613e26576020613d34836002546151f4565b939093613d413082614fec565b6002555b6064613d4f61502f565b5f5160206153545f395f51905f5254604051637702dcff60e01b8152600481019790975260248701939093526044860152849182905f906001600160a01b03165af1918215611eab575f92613df2575b5081925f9295613db185600254613b24565b613dbb3082614fec565b60025515613de2575b50613dcf3084614fec565b5f5160206153745f395f51905f528280a4565b613dec9084614fec565b5f613dc4565b91506020823d602011613e1e575b81613e0d60209383612681565b81010312610b79575f915191613d9f565b3d9150613e00565b805f525f60205260405f20548015613e6b57613e44836020926150cb565b939093613e513082614fec565b613e5b8682614fec565b835f525f835260405f2055613d45565b506317fe473760e21b5f5260045260245ffd5b6001600160a01b03811680159493928515613ff6576020613ea1856002546151f4565b959095613eae3082614fec565b6002555b6064613ebc61502f565b5f5160206153545f395f51905f5254604051637702dcff60e01b8152600481019990995260248901939093526044880152869182905f906001600160a01b03165af1938415611eab575f94613fc2575b50839560018060a01b03821693841591825f14613f8857613f2f87600254613b24565b613f393082614fec565b6002555b15613f78575b5015613f68575b50613f553084614fec565b5f5160206153745f395f51905f525f80a4565b613f729084614fec565b5f613f4a565b613f829086614fec565b5f613f43565b855f525f602052613f9d8760405f205461342c565b613fa73082614fec565b613fb18582614fec565b865f525f60205260405f2055613f3d565b9093506020813d602011613fee575b81613fde60209383612681565b81010312610b795751925f613f0c565b3d9150613fd1565b815f525f60205260405f2054801561403b57614014856020926150cb565b9590956140213082614fec565b61402b8682614fec565b845f525f835260405f2055613eb2565b826317fe473760e21b5f5260045260245ffd5b939594929390929091803b1561415b576040516346083bfd60e01b81526001600160a01b0393841660048201529383166024850152604484019490945260806064840152608483018190529216939091602091839160a4918391908190838501375f838284010152601f801991011681010301815f875af15f9181614127575b5061412357823d1561411c573d6140e4816126b6565b906140f26040519283612681565b81523d5f602083013e5b805190816141175782638d51880160e01b5f5260045260245ffd5b602001fd5b60606140fc565b9150565b9091506020813d602011614153575b8161414360209383612681565b81010312610b795751905f6140ce565b3d9150614136565b50505050509050612722600161507d565b5f5160206153d45f395f51905f52546040516382027b6d60e01b81529260209284926001600160a01b031691839182916141a991600484016128ba565b03915afa908115611eab575f916141be575090565b612722915060203d602011612b4057612b328183612681565b6001600160a01b03918216815291166020820152604081019190915260600190565b60105460405163344ff10160e01b815230600482015294919391926001600160a01b0390911690602086602481855afa958615611eab575f96614488575b5060115460405163344ff10160e01b815230600482015293929190602090859060249082906001600160a01b03165afa938415611eab575f94614450575b5061429c5f9260209260405194858094819363eb3155b560e01b8352308d600485016141d7565b03925af18015611eab5761441d575b5060115460405163eb3155b560e01b81529460209286926001600160a01b03169183915f9183916142e1913090600485016141d7565b03925af18015611eab576143eb575b60105460405163344ff10160e01b81523060048201529350602090849060249082906001600160a01b03165afa928315611eab575f936143b6575b5060115460405163344ff10160e01b8152306004820152939490602090859060249082906001600160a01b03165afa938415611eab575f9461437e575b5061437890612722939495613b24565b93613b24565b909293506020813d6020116143ae575b8161439b60209383612681565b81010312610b7957519291614378614368565b3d915061438e565b92506020833d6020116143e3575b816143d160209383612681565b81010312610b7957602492519261432b565b3d91506143c4565b6020833d602011614415575b8161440460209383612681565b81010312610b7957602492506142f0565b3d91506143f7565b906020823d602011614448575b8161443760209383612681565b81010312610b7957905060206142ab565b3d915061442a565b919093506020823d602011614480575b8161446d60209383612681565b81010312610b795790519261429c614275565b3d9150614460565b92919095506020833d6020116144bb575b816144a660209383612681565b81010312610b79576024925195909192614237565b3d9150614499565b60105460405163344ff10160e01b815230600482015294919391926001600160a01b0390911690602086602481855afa958615611eab575f96614768575b5060115460405163344ff10160e01b815230600482015293929190602090859060249082906001600160a01b03165afa938415611eab575f94614730575b506145665f9260209260405194858094819363eb3155b560e01b8352308d600485016141d7565b03925af18015611eab576146fd575b5060115460405163eb3155b560e01b81529460209286926001600160a01b03169183915f9183916145ab913090600485016141d7565b03925af18015611eab576146cb575b60105460405163344ff10160e01b81523060048201529350602090849060249082906001600160a01b03165afa928315611eab575f93614696575b5060115460405163344ff10160e01b8152306004820152939490602090859060249082906001600160a01b03165afa938415611eab575f9461465e575b5061437890614642939495613b24565b906129f76146528460125461342c565b6124af8460135461342c565b909293506020813d60201161468e575b8161467b60209383612681565b81010312610b7957519291614378614632565b3d915061466e565b92506020833d6020116146c3575b816146b160209383612681565b81010312610b795760249251926145f5565b3d91506146a4565b6020833d6020116146f5575b816146e460209383612681565b81010312610b7957602492506145ba565b3d91506146d7565b906020823d602011614728575b8161471760209383612681565b81010312610b795790506020614575565b3d915061470a565b919093506020823d602011614760575b8161474d60209383612681565b81010312610b795790519261456661453f565b3d9150614740565b92919095506020833d60201161479b575b8161478660209383612681565b81010312610b79576024925195909192614501565b3d9150614779565b5f5160206153545f395f51905f52546040516307227b9160e21b815260048101929092526001600160a01b0316816044815f602094600660248401525af1908115611eab575f9161348e575090565b5f5160206153545f395f51905f52546040516307227b9160e21b815260048101929092526001600160a01b0316816044815f602094600560248401525af1908115611eab575f9161348e575090565b5f5160206153f45f395f51905f52545f5160206153d45f395f51905f52549092915f916001600160a01b0316803b15610b79575f6040518092637d6e912360e11b82526020600483015281838161489b6024820189613af1565b03925af18015611eab57614a40575b505f5160206153b45f395f51905f52546001600160a01b0316803b1561035257826040518092633263b83b60e01b8252876004830152606060248301528183816148f76064820189613af1565b63131107a360e31b604483015203925af1801561034757908391614a2b575b508490525f5160206153145f395f51905f526020526040822054614a1c578382525f5160206153145f395f51905f52602052604082208151916001600160401b038311614a0857600160401b8311614a085781548383558084106149e2575b5060200190835260208320835b8381106149ce57505050505f5160206153f45f395f51905f5254905f1982146149ba57506001015f5160206153f45f395f51905f5255565b634e487b7160e01b81526011600452602490fd5b600190602084519401938184015501614982565b828552836020862091820191015b8181106149fd5750614975565b8581556001016149f0565b634e487b7160e01b84526041600452602484fd5b633f06d22b60e01b8252600482fd5b81614a3591612681565b61034357815f614916565b614a4d9192505f90612681565b5f905f6148aa565b5f5160206153f45f395f51905f52545f5160206153d45f395f51905f52549092915f916001600160a01b0316803b15610b79575f6040518092637d6e912360e11b825260206004830152818381614aaf6024820189613af1565b03925af18015611eab57614c1d575b505f5160206153b45f395f51905f52546001600160a01b0316803b1561035257826040518092633263b83b60e01b825287600483015260606024830152818381614b0b6064820189613af1565b630295b4cf60e21b604483015203925af1801561034757908391614c08575b508490525f5160206153145f395f51905f526020526040822054614a1c578382525f5160206153145f395f51905f52602052604082208151916001600160401b038311614a0857600160401b8311614a08578154838355808410614be2575b5060200190835260208320835b838110614bce57505050505f5160206153f45f395f51905f5254905f1982146149ba57506001015f5160206153f45f395f51905f5255565b600190602084519401938184015501614b96565b828552836020862091820191015b818110614bfd5750614b89565b858155600101614bf0565b81614c1291612681565b61034357815f614b2a565b614c2a9192505f90612681565b5f905f614abe565b5f5160206153f45f395f51905f52545f5160206153d45f395f51905f52549092915f916001600160a01b0316803b15610b79575f6040518092637d6e912360e11b825260206004830152818381614c8c6024820189613af1565b03925af18015611eab57614dfa575b505f5160206153b45f395f51905f52546001600160a01b0316803b1561035257826040518092633263b83b60e01b825287600483015260606024830152818381614ce86064820189613af1565b63370c0e2b60e21b604483015203925af1801561034757908391614de5575b508490525f5160206153145f395f51905f526020526040822054614a1c578382525f5160206153145f395f51905f52602052604082208151916001600160401b038311614a0857600160401b8311614a08578154838355808410614dbf575b5060200190835260208320835b838110614dab57505050505f5160206153f45f395f51905f5254905f1982146149ba57506001015f5160206153f45f395f51905f5255565b600190602084519401938184015501614d73565b828552836020862091820191015b818110614dda5750614d66565b858155600101614dcd565b81614def91612681565b61034357815f614d07565b614e079192505f90612681565b5f905f614c9b565b5f5160206153f45f395f51905f52545f5160206153d45f395f51905f52549092915f916001600160a01b0316803b15610b79575f6040518092637d6e912360e11b825260206004830152818381614e696024820189613af1565b03925af18015611eab57614fd7575b505f5160206153b45f395f51905f52546001600160a01b0316803b1561035257826040518092633263b83b60e01b825287600483015260606024830152818381614ec56064820189613af1565b6352b9d4fb60e11b604483015203925af1801561034757908391614fc2575b508490525f5160206153145f395f51905f526020526040822054614a1c578382525f5160206153145f395f51905f52602052604082208151916001600160401b038311614a0857600160401b8311614a08578154838355808410614f9c575b5060200190835260208320835b838110614f8857505050505f5160206153f45f395f51905f5254905f1982146149ba57506001015f5160206153f45f395f51905f5255565b600190602084519401938184015501614f50565b828552836020862091820191015b818110614fb75750614f43565b858155600101614faa565b81614fcc91612681565b61034357815f614ee4565b614fe49192505f90612681565b5f905f614e78565b5f5160206153d45f395f51905f52546001600160a01b031691823b15610b79576129dc925f9283604051809681958294635ca4b5b160e11b8452600484016128ba565b5f5160206153545f395f51905f5254604051639cd07acb60e01b81525f6004820152906001600160a01b0316816044815f602094600560248401525af1908115611eab575f9161348e575090565b5f5160206153545f395f51905f5254604051639cd07acb60e01b815260048101929092526001600160a01b0316816044815f6020948160248401525af1908115611eab575f9161348e575090565b91909180158061513d575060206150ec6150e5858461526f565b9483613b24565b91606460018060a01b035f5160206153545f395f51905f525416935f6040519586948593637702dcff60e01b85528a6004860152602485015260448401525af1908115611eab575f9161348e575090565b909280156151e45783916151d0575b602090606460018060a01b035f5160206153545f395f51905f525416935f604051958694859363f77f3f1d60e01b8552600485015260248401528160448401525af1908115611eab575f916151a057509190565b90506020813d6020116151c8575b816151bb60209383612681565b81010312610b7957519190565b3d91506151ae565b905060206151dc61502f565b91905061514c565b50506151f0600161507d565b9190565b9190821561526357615206908361342c565b6020615212848361526f565b93606460018060a01b035f5160206153545f395f51905f525416935f6040519586948593637702dcff60e01b85528a6004860152602485015260448401525af1908115611eab575f9161348e575090565b91506151f0600161507d565b9081156152e3575b80156152d1575b602090606460018060a01b035f5160206153545f395f51905f525416935f6040519586948593631391547f60e01b8552600485015260248401528160448401525af1908115611eab575f9161348e575090565b5060206152dc61502f565b905061527e565b90506152ed61502f565b9061527756fe40ac511e5e6ae27363fc6d4c6c8c3e3e2eabb050660665d7bfe6605005535b28878245876662ba28a480c5ea71726db859fb50222b0a3d7cbbc21cfa336faf0151dad7b997cf4e55c1c151acca1aa99bb4eef471f5bf521b38555f8b01e574769e7b61f58c47dc699ac88507c4f5bb9f121c03808c5676a8078fe583e464970167500e8d0ed826d2194f514dd0d8124f35648ab6e3fb5e6ed867134cffe661e973f04af9dcc582a923ec15d3eea990fe34adabfff2879e28d44572e01a54abb69e7b61f58c47dc699ac88507c4f5bb9f121c03808c5676a8078fe583e46497029e7b61f58c47dc699ac88507c4f5bb9f121c03808c5676a8078fe583e4649700878245876662ba28a480c5ea71726db859fb50222b0a3d7cbbc21cfa336faf00a164736f6c634300081b000a9e7b61f58c47dc699ac88507c4f5bb9f121c03808c5676a8078fe583e4649700",
  "linkReferences": {
    "contracts/CAMMPairLib.sol": {
      "CAMMPairLib": [
        {
          "length": 20,
          "start": 4332
        },
        {
          "length": 20,
          "start": 5036
        },
        {
          "length": 20,
          "start": 6229
        },
        {
          "length": 20,
          "start": 7701
        },
        {
          "length": 20,
          "start": 10032
        },
        {
          "length": 20,
          "start": 11116
        },
        {
          "length": 20,
          "start": 15471
        }
      ]
    }
  },
  "deployedLinkReferences": {
    "contracts/CAMMPairLib.sol": {
      "CAMMPairLib": [
        {
          "length": 20,
          "start": 2517
        },
        {
          "length": 20,
          "start": 3221
        },
        {
          "length": 20,
          "start": 4414
        },
        {
          "length": 20,
          "start": 5886
        },
        {
          "length": 20,
          "start": 8217
        },
        {
          "length": 20,
          "start": 9301
        },
        {
          "length": 20,
          "start": 13656
        }
      ]
    }
  }
}